{
    "contractName": "NotesArray",
    "abi": [
        {
            "anonymous": false,
            "inputs": [
                {
                    "indexed": true,
                    "internalType": "uint256",
                    "name": "id",
                    "type": "uint256"
                }
            ],
            "name": "NoteArchived",
            "type": "event"
        },
        {
            "anonymous": false,
            "inputs": [
                {
                    "indexed": true,
                    "internalType": "uint256",
                    "name": "id",
                    "type": "uint256"
                },
                {
                    "indexed": false,
                    "internalType": "string",
                    "name": "title",
                    "type": "string"
                }
            ],
            "name": "NoteCreated",
            "type": "event"
        },
        {
            "anonymous": false,
            "inputs": [
                {
                    "indexed": true,
                    "internalType": "uint256",
                    "name": "id",
                    "type": "uint256"
                }
            ],
            "name": "NoteDeleted",
            "type": "event"
        },
        {
            "anonymous": false,
            "inputs": [
                {
                    "indexed": true,
                    "internalType": "uint256",
                    "name": "id",
                    "type": "uint256"
                },
                {
                    "indexed": false,
                    "internalType": "string",
                    "name": "newTitle",
                    "type": "string"
                }
            ],
            "name": "NoteUpdated",
            "type": "event"
        },
        {
            "inputs": [
                {
                    "internalType": "uint256",
                    "name": "_id",
                    "type": "uint256"
                }
            ],
            "name": "archiveNote",
            "outputs": [],
            "stateMutability": "nonpayable",
            "type": "function"
        },
        {
            "inputs": [
                {
                    "internalType": "string",
                    "name": "_title",
                    "type": "string"
                },
                {
                    "internalType": "string",
                    "name": "_content",
                    "type": "string"
                }
            ],
            "name": "createNote",
            "outputs": [],
            "stateMutability": "nonpayable",
            "type": "function"
        },
        {
            "inputs": [
                {
                    "internalType": "uint256",
                    "name": "_id",
                    "type": "uint256"
                }
            ],
            "name": "deleteNote",
            "outputs": [],
            "stateMutability": "nonpayable",
            "type": "function"
        },
        {
            "inputs": [],
            "name": "getAllNotes",
            "outputs": [
                {
                    "components": [
                        {
                            "internalType": "uint256",
                            "name": "id",
                            "type": "uint256"
                        },
                        {
                            "internalType": "string",
                            "name": "title",
                            "type": "string"
                        },
                        {
                            "internalType": "string",
                            "name": "content",
                            "type": "string"
                        },
                        {
                            "internalType": "enum NotesArray.Status",
                            "name": "status",
                            "type": "uint8"
                        }
                    ],
                    "internalType": "struct NotesArray.Note[]",
                    "name": "",
                    "type": "tuple[]"
                }
            ],
            "stateMutability": "view",
            "type": "function"
        },
        {
            "inputs": [
                {
                    "internalType": "uint256",
                    "name": "_id",
                    "type": "uint256"
                }
            ],
            "name": "getNote",
            "outputs": [
                {
                    "components": [
                        {
                            "internalType": "uint256",
                            "name": "id",
                            "type": "uint256"
                        },
                        {
                            "internalType": "string",
                            "name": "title",
                            "type": "string"
                        },
                        {
                            "internalType": "string",
                            "name": "content",
                            "type": "string"
                        },
                        {
                            "internalType": "enum NotesArray.Status",
                            "name": "status",
                            "type": "uint8"
                        }
                    ],
                    "internalType": "struct NotesArray.Note",
                    "name": "",
                    "type": "tuple"
                }
            ],
            "stateMutability": "view",
            "type": "function"
        },
        {
            "inputs": [
                {
                    "internalType": "uint256",
                    "name": "_id",
                    "type": "uint256"
                }
            ],
            "name": "noteExists",
            "outputs": [
                {
                    "internalType": "bool",
                    "name": "",
                    "type": "bool"
                }
            ],
            "stateMutability": "view",
            "type": "function"
        },
        {
            "inputs": [
                {
                    "internalType": "uint256",
                    "name": "_id",
                    "type": "uint256"
                },
                {
                    "internalType": "string",
                    "name": "_newTitle",
                    "type": "string"
                },
                {
                    "internalType": "string",
                    "name": "_newContent",
                    "type": "string"
                }
            ],
            "name": "updateNote",
            "outputs": [],
            "stateMutability": "nonpayable",
            "type": "function"
        }
    ],
    "bytecode": "60808060405234601557610d74908161001a8239f35b5f80fdfe60806040526004361015610011575f80fd5b5f3560e01c806309abcd3b146106605780632feaf817146103ac57806355d229181461034e5780635f8e2ac01461032d578063a965a941146102c1578063c47177f41461016d5763de8f430c14610066575f80fd5b34610169575f366003190112610169575f546001600160401b038111610155576040519061009a60208260051b0183610911565b8082526020820190815f80527f290decd9548b62a8d60345a988386fc84ba6bc95484008f6362f93160ef3e5635f915b83831061013757848660405191829160208301906020845251809152604083019060408160051b85010192915f905b82821061010857505050500390f35b919360019193955060206101278192603f198a820301865288516109ab565b96019201920185949391926100f9565b6004602060019261014785610bcb565b8152019201920191906100ca565b634e487b7160e01b5f52604160045260245ffd5b5f80fd5b346101695760203660031901126101695760043561018d5f5482106109f4565b805b5f545f1981019081116102375781101561024b5760018101808211610237576101b790610a36565b50906101c281610a36565b929092610224578281600194036101e8575b5050806101e081610a36565b50550161018f565b600360ff818461021d95548555610203888201898701610c17565b6102136002820160028701610c17565b0154169101610b15565b83806101d4565b634e487b7160e01b5f525f60045260245ffd5b634e487b7160e01b5f52601160045260245ffd5b505f5480156102ad575f190161026081610a36565b610224576003815f80935561027760018201610cf0565b61028360028201610cf0565b01555f557f89af6ba62ab348dc535a3187c267090f834c868a3820cd552a7110c3dc3eedb85f80a2005b634e487b7160e01b5f52603160045260245ffd5b346101695760203660031901126101695761032961031561030f6004355f60606040516102ed816108f6565b828152816020820152816040820152015261030a5f5482106109f4565b610a36565b50610bcb565b6040519182916020835260208301906109ab565b0390f35b346101695760203660031901126101695760205f5460043510604051908152f35b346101695760203660031901126101695760043561036e5f5482106109f4565b600361037982610a36565b5001805460ff191660011790557f4390c3da3a3edc833d9a2035d3aca24094cd6f66bcf6511fc39698f7371e073f5f80a2005b34610169576040366003190112610169576004356001600160401b038111610169576103dc903690600401610932565b6024356001600160401b038111610169576103fb903690600401610932565b905f54916040519061040c826108f6565b83825260208201908382526040830190815260608301915f83526801000000000000000086101561015557600186015f5561044686610a36565b9490946102245751845551805160018501916001600160401b0382116101555761047a826104748554610a82565b85610ad0565b602090601f83116001146105fd576104a992915f91836105f2575b50508160011b915f199060031b1c19161790565b90555b51805160028401916001600160401b038211610155576104d0826104748554610a82565b602090601f831160011461058f576104fe92915f91836105845750508160011b915f199060031b1c19161790565b90555b5160028110156105705760036105179201610b15565b5f545f198101908111610237577f6550444ada089c308baa525c38c9b134b73b5b6a724c2276144d6b9ecd9f6fa09161056b91845f52600160205260405f2055604051918291602083526020830190610987565b0390a2005b634e487b7160e01b5f52602160045260245ffd5b015190508880610495565b90601f19831691845f52815f20925f5b8181106105da57509084600195949392106105c2575b505050811b019055610501565b01515f1960f88460031b161c191690558780806105b5565b9293602060018192878601518155019501930161059f565b015190508980610495565b90601f19831691845f52815f20925f5b8181106106485750908460019594939210610630575b505050811b0190556104ac565b01515f1960f88460031b161c19169055888080610623565b9293602060018192878601518155019501930161060d565b34610169576060366003190112610169576004356024356001600160401b03811161016957610693903690600401610932565b906044356001600160401b038111610169576106b3903690600401610932565b916106c05f5483106109f4565b6106c982610a36565b5060ff6003820154166002811015610570576108be576001810182516001600160401b03811161015557610707816107018454610a82565b84610ad0565b6020601f821160011461085a57816002949392610738925f9161084f575b508160011b915f199060031b1c19161790565b90555b0183516001600160401b0381116101555761075a816107018454610a82565b6020601f82116001146107c6578161056b9493926107af927ff4a9990466472e087350221001dbdf2f5f11c2bcb1019e44fc8449ff3999eb9497985f926105845750508160011b915f199060031b1c19161790565b90555b604051918291602083526020830190610987565b601f19821695835f52815f20965f5b818110610837575096600192849261056b9796957ff4a9990466472e087350221001dbdf2f5f11c2bcb1019e44fc8449ff3999eb94999a1061081f575b505050811b0190556107b2565b01515f1960f88460031b161c19169055878080610812565b838301518955600190980197602093840193016107d5565b905086015189610725565b601f19821690835f52805f20915f5b8181106108a6575091839160029695946001941061088e575b5050811b01905561073b565b8701515f1960f88460031b161c191690558880610882565b9192602060018192868b015181550194019201610869565b60405162461bcd60e51b815260206004820152601060248201526f139bdd19481a5cc8185c98da1a5d995960821b6044820152606490fd5b608081019081106001600160401b0382111761015557604052565b90601f801991011681019081106001600160401b0382111761015557604052565b81601f82011215610169578035906001600160401b0382116101555760405192610966601f8401601f191660200185610911565b8284526020838301011161016957815f926020809301838601378301015290565b805180835260209291819084018484015e5f828201840152601f01601f1916010190565b908151815260606109e06109ce6020850151608060208601526080850190610987565b60408501518482036040860152610987565b920151906002821015610570576060015290565b156109fb57565b60405162461bcd60e51b8152602060048201526013602482015272139bdd1948191bd95cc81b9bdd08195e1a5cdd606a1b6044820152606490fd5b5f54811015610a6e575f80805260029190911b7f290decd9548b62a8d60345a988386fc84ba6bc95484008f6362f93160ef3e5630191565b634e487b7160e01b5f52603260045260245ffd5b90600182811c92168015610ab0575b6020831014610a9c57565b634e487b7160e01b5f52602260045260245ffd5b91607f1691610a91565b818110610ac5575050565b5f8155600101610aba565b9190601f8111610adf57505050565b610b09925f5260205f20906020601f840160051c83019310610b0b575b601f0160051c0190610aba565b565b9091508190610afc565b9060028110156105705760ff80198354169116179055565b9060405191825f825492610b4084610a82565b8084529360018116908115610ba95750600114610b65575b50610b0992500383610911565b90505f9291925260205f20905f915b818310610b8d575050906020610b09928201015f610b58565b6020919350806001915483858901015201910190918492610b74565b905060209250610b0994915060ff191682840152151560051b8201015f610b58565b90604051610bd8816108f6565b60ff6003829480548452610bee60018201610b2d565b6020850152610bff60028201610b2d565b60408501520154169060028210156105705760600152565b919091828114610ceb57610c2b8354610a82565b6001600160401b03811161015557610c47816107018454610a82565b5f93601f8211600114610c8557610c7692939482915f92610c7a5750508160011b915f199060031b1c19161790565b9055565b015490505f80610495565b601f198216905f5260205f2094835f5260205f20915f5b818110610cd357509583600195969710610cbb575b505050811b019055565b01545f1960f88460031b161c191690555f8080610cb1565b9192600180602092868b015481550194019201610c9c565b509050565b610cfa8154610a82565b9081610d04575050565b81601f5f9311600114610d15575055565b81835260208320610d3191601f0160051c810190600101610aba565b808252816020812091555556fea2646970667358221220f8f073bcfbd92f5c4e11dcca03f0fbacfad89da2ce5e425d8d9f33152784a3f064736f6c634300081e0033",
    "sourcePath": "/Users/quantnd/Library/CloudStorage/OneDrive-GOLDENFINANCIALINNOVATION(GFI)/GFI-Bot/Solidity_learning/src/NoteArray.sol",
    "compiler": {
        "name": "solc",
        "version": "0.8.30+commit.73712a01"
    },
    "functionHashes": {
        "archiveNote(uint256)": "55d22918",
        "createNote(string,string)": "2feaf817",
        "deleteNote(uint256)": "c47177f4",
        "getAllNotes()": "de8f430c",
        "getNote(uint256)": "a965a941",
        "noteExists(uint256)": "5f8e2ac0",
        "updateNote(uint256,string,string)": "09abcd3b"
    },
    "gasEstimates": {
        "creation": {
            "codeDepositCost": "688800",
            "executionCost": "729",
            "totalCost": "689529"
        },
        "external": {
            "archiveNote(uint256)": "29868",
            "createNote(string,string)": "infinite",
            "deleteNote(uint256)": "infinite",
            "getAllNotes()": "infinite",
            "getNote(uint256)": "infinite",
            "noteExists(uint256)": "2323",
            "updateNote(uint256,string,string)": "infinite"
        }
    }
}