{
    "contractName": "NotesRegistry",
    "abi": [
        {
            "inputs": [
                {
                    "internalType": "address",
                    "name": "_factoryAddress",
                    "type": "address"
                }
            ],
            "stateMutability": "nonpayable",
            "type": "constructor"
        },
        {
            "inputs": [
                {
                    "internalType": "uint256",
                    "name": "",
                    "type": "uint256"
                }
            ],
            "name": "allNotesContracts",
            "outputs": [
                {
                    "internalType": "address",
                    "name": "",
                    "type": "address"
                }
            ],
            "stateMutability": "view",
            "type": "function"
        },
        {
            "inputs": [],
            "name": "getRegistry",
            "outputs": [
                {
                    "internalType": "address[]",
                    "name": "",
                    "type": "address[]"
                }
            ],
            "stateMutability": "view",
            "type": "function"
        },
        {
            "inputs": [],
            "name": "notesFactory",
            "outputs": [
                {
                    "internalType": "contract INotesFactory",
                    "name": "",
                    "type": "address"
                }
            ],
            "stateMutability": "view",
            "type": "function"
        },
        {
            "inputs": [],
            "name": "updateRegistry",
            "outputs": [],
            "stateMutability": "nonpayable",
            "type": "function"
        }
    ],
    "bytecode": "608034606f57601f61042138819003918201601f19168301916001600160401b03831184841017607357808492602094604052833981010312606f57516001600160a01b03811690819003606f575f80546001600160a01b03191691909117905560405161039990816100888239f35b5f80fd5b634e487b7160e01b5f52604160045260245ffdfe6080806040526004361015610012575f80fd5b5f3560e01c9081633eb035c3146102dc5750806349d10b64146101285780635ab1bd5314610073576386f5f82714610048575f80fd5b3461006f575f36600319011261006f575f546040516001600160a01b039091168152602090f35b5f80fd5b3461006f575f36600319011261006f576040518060206001549283815201809260015f525f5160206103445f395f51905f52905f5b81811061010957505050816100be910382610321565b604051918291602083019060208452518091526040830191905f5b8181106100e7575050500390f35b82516001600160a01b03168452859450602093840193909201916001016100d9565b82546001600160a01b03168452602090930192600192830192016100a8565b3461006f575f36600319011261006f575f8054604051639556256760e01b81529190829060049082906001600160a01b03165afa9081156102d1575f91610226575b5080519067ffffffffffffffff82116102125768010000000000000000821161021257600154826001558083106101da575b506020019060015f525f5b8181106101b057005b82516001600160a01b03165f5160206103445f395f51905f528201556020909201916001016101a7565b5f5160206103445f395f51905f5201825f5160206103445f395f51905f52015b818110610207575061019c565b5f81556001016101fa565b634e487b7160e01b5f52604160045260245ffd5b90503d805f833e6102378183610321565b81019060208183031261006f5780519067ffffffffffffffff821161006f570181601f8201121561006f5780519167ffffffffffffffff8311610212578260051b916040519361028a6020850186610321565b845260208085019382010191821161006f57602001915b8183106102b1575050508161016a565b82516001600160a01b038116810361006f578152602092830192016102a1565b6040513d5f823e3d90fd5b3461006f57602036600319011261006f576004359060015482101561006f5760015f525f5160206103445f395f51905f52909101546001600160a01b03168152602090f35b90601f8019910116810190811067ffffffffffffffff8211176102125760405256feb10e2d527612073b26eecdfd717e6a320cf44b4afac2b0732d9fcbe2b7fa0cf6a2646970667358221220e4fa553b0f4e554a258517ade561088cacfda6f506f2d2a7f721221552d7612364736f6c634300081e0033",
    "sourcePath": "/Users/quantnd/Library/CloudStorage/OneDrive-GOLDENFINANCIALINNOVATION(GFI)/GFI-Bot/Solidity_learning/src/NotesRegistry.sol",
    "compiler": {
        "name": "solc",
        "version": "0.8.30+commit.73712a01"
    },
    "functionHashes": {
        "allNotesContracts(uint256)": "3eb035c3",
        "getRegistry()": "5ab1bd53",
        "notesFactory()": "86f5f827",
        "updateRegistry()": "49d10b64"
    },
    "gasEstimates": {
        "creation": {
            "codeDepositCost": "184200",
            "executionCost": "infinite",
            "totalCost": "infinite"
        },
        "external": {
            "allNotesContracts(uint256)": "4447",
            "getRegistry()": "infinite",
            "notesFactory()": "2342",
            "updateRegistry()": "infinite"
        }
    }
}