{
    "contractName": "NotesFactory",
    "abi": [
        {
            "anonymous": false,
            "inputs": [
                {
                    "indexed": true,
                    "internalType": "address",
                    "name": "owner",
                    "type": "address"
                },
                {
                    "indexed": true,
                    "internalType": "address",
                    "name": "notesAddress",
                    "type": "address"
                }
            ],
            "name": "NotesContractCreated",
            "type": "event"
        },
        {
            "inputs": [],
            "name": "createNoteContract",
            "outputs": [],
            "stateMutability": "nonpayable",
            "type": "function"
        },
        {
            "inputs": [
                {
                    "internalType": "uint256",
                    "name": "",
                    "type": "uint256"
                }
            ],
            "name": "deployedNotes",
            "outputs": [
                {
                    "internalType": "address",
                    "name": "",
                    "type": "address"
                }
            ],
            "stateMutability": "view",
            "type": "function"
        },
        {
            "inputs": [],
            "name": "getDeployedNotes",
            "outputs": [
                {
                    "internalType": "address[]",
                    "name": "",
                    "type": "address[]"
                }
            ],
            "stateMutability": "view",
            "type": "function"
        }
    ],
    "bytecode": "60808060405234601557611552908161001a8239f35b5f80fdfe60806040526004361015610011575f80fd5b5f5f3560e01c806328de54911461022857806395562567146101625763c479351a1461003b575f80fd5b3461014a575f36600319011261014a5760405161126780820182811067ffffffffffffffff82111761014e5782916102b6833903905ff0801561013f576001600160a01b0316803b1561014a5760405163f2fde38b60e01b81523360048201525f8160248183865af1801561013f5761012a575b50815468010000000000000000811015610116578060016100d292018455610269565b81546001600160a01b0360039290921b91821b19169083901b179055337f774899fcf321d47d431ad54ab498bd1af385c3f254469e694a6fcbe98512103a8380a380f35b634e487b7160e01b83526041600452602483fd5b6101379192505f90610293565b5f905f6100af565b6040513d5f823e3d90fd5b5f80fd5b634e487b7160e01b5f52604160045260245ffd5b3461014a575f36600319011261014a576040518060205f54928381520180925f80527f290decd9548b62a8d60345a988386fc84ba6bc95484008f6362f93160ef3e563905f5b81811061020957505050816101be910382610293565b604051918291602083019060208452518091526040830191905f5b8181106101e7575050500390f35b82516001600160a01b03168452859450602093840193909201916001016101d9565b82546001600160a01b03168452602090930192600192830192016101a8565b3461014a57602036600319011261014a576004355f5481101561014a57610250602091610269565b905460405160039290921b1c6001600160a01b03168152f35b5f5481101561027f575f805260205f2001905f90565b634e487b7160e01b5f52603260045260245ffd5b90601f8019910116810190811067ffffffffffffffff82111761014e5760405256fe608080604052346071573315605e575f8054336001600160a01b0319821681178355916001600160a01b03909116907f8be0079c531659141344cd1fd0a4f28419497f9722a3daafe3b4186f6b6457e09080a36111f190816100768239f35b631e4fbdf760e01b5f525f60045260245ffd5b5f80fdfe60806040526004361015610011575f80fd5b5f3560e01c80630b1f0c2e146100e457806312065fe0146100df57806316a33a49146100da5780631882cd43146100d5578063209b4bb9146100d05780632a5c44ea146100cb5780632feaf817146100c65780633ccfd60b146100c1578063715018a6146100bc5780638da5cb5b146100b7578063b66ec0a7146100b2578063f2fde38b146100ad5763f4076934146100a8575f80fd5b610bea565b610b65565b610a8a565b610a63565b610a0c565b6109a0565b61084c565b610656565b610523565b610469565b610358565b610327565b6101d4565b600435906001600160801b03821682036100ff57565b5f80fd5b602435906001600160801b03821682036100ff57565b634e487b7160e01b5f52604160045260245ffd5b60a081019081106001600160401b0382111761014857604052565b610119565b90601f801991011681019081106001600160401b0382111761014857604052565b6040519061017d60a08361014d565b565b81601f820112156100ff578035906001600160401b03821161014857604051926101b3601f8401601f19166020018561014d565b828452602083830101116100ff57815f926020809301838601378301015290565b346100ff5760603660031901126100ff576101ed6100e9565b6024356001600160401b0381116100ff5761020c90369060040161017f565b6044356001600160401b0381116100ff5761022e6102e791369060040161017f565b335f52600360205261026060ff6102598660405f20906001600160801b03165f5260205260405f2090565b5416610c2b565b335f5260026020526102c16102898560405f20906001600160801b03165f5260205260405f2090565b916102ab61029c845460ff9060c01c1690565b6102a5816103b5565b15610c6d565b6102b88560018501610d3d565b60028301610d3d565b805467ffffffffffffffff60801b19164260801b67ffffffffffffffff60801b16179055565b7faca1be64b9e849570825220f448574ca528bcaa1799db9868ddc60d0a45b6f586001600160801b0360405193169280610322339482610e08565b0390a3005b346100ff575f3660031901126100ff57602047604051908152f35b600435906001600160a01b03821682036100ff57565b346100ff5760403660031901126100ff57602060ff6103a9610378610342565b610380610103565b9060018060a01b03165f526003845260405f20906001600160801b03165f5260205260405f2090565b54166040519015158152f35b600211156103bf57565b634e487b7160e01b5f52602160045260245ffd5b805180835260209291819084018484015e5f828201840152601f01601f1916010190565b90602082526001600160801b0381511660208301526001600160401b03602082015116604083015260408101519160028310156103bf576104669260608201526080610451606084015160a08385015260c08401906103d3565b9201519060a0601f19828503019101526103d3565b90565b346100ff5760403660031901126100ff5761051f61051361050e61048b610342565b610493610103565b90606060806040516104a48161012d565b5f81525f60208201525f60408201528280820152015260018060a01b0316805f5260036020526104ed60ff6102598460405f20906001600160801b03165f5260205260405f2090565b5f52600260205260405f20906001600160801b03165f5260205260405f2090565b610eb7565b604051918291826103f7565b0390f35b346100ff5760203660031901126100ff576001600160801b036105446100e9565b335f52600360205261056f60ff6102598360405f20906001600160801b03165f5260205260405f2090565b335f5260026020526105958160405f20906001600160801b03165f5260205260405f2090565b805460ff60c01b1916600160c01b17905516337f3639c2972434df95ed7612b675e041d171c44f6e35fbd2f79d2e06ab2545301a5f80a3005b9080601f830112156100ff578135916001600160401b038311610148578260051b9060405193610601602084018661014d565b8452602080850192820101918383116100ff5760208201905b83821061062957505050505090565b81356001600160401b0381116100ff5760209161064b8784809488010161017f565b81520191019061061a565b346100ff5760403660031901126100ff576004356001600160401b0381116100ff576106869036906004016105ce565b6024356001600160401b0381116100ff576106a59036906004016105ce565b6106b28251825114610f44565b335f908152600160205260409020546001600160801b0316905f5b83518110156107eb57806106ec6001600160801b036001931685610f89565b6107726106f98388610fbd565b516107048487610fbd565b5161070d61016e565b6001600160801b0385168152916001600160401b03421660208401525f60408401526060830152608082015261076d836107573360018060a01b03165f52600260205260405f2090565b906001600160801b03165f5260205260405f2090565b610fe5565b335f90815260036020526040902061079c9061078f908390610757565b805460ff19166001179055565b6107a68287610fbd565b517f346f3aed6784cb8ffa072259a187d0273b6f67d6b0f4d63c98ce9755eceb79496001600160801b03604051931692806107e2339482610e08565b0390a3016106cd565b61084a6107ff85516001600160801b031690565b335f908152600160205260409020610830909161082383546001600160801b031690565b016001600160801b031690565b6001600160801b03166001600160801b0319825416179055565b005b346100ff5760403660031901126100ff576004356001600160401b0381116100ff5761087c90369060040161017f565b6024356001600160401b0381116100ff5761089b90369060040161017f565b90335f5260016020526109106108bc60405f206001600160801b0390541690565b926108c561016e565b6001600160801b0385168152906001600160401b03421660208301525f6040830152836060830152608082015261076d846107573360018060a01b03165f52600260205260405f2090565b335f90815260036020526040902061092d9061078f908490610757565b7f346f3aed6784cb8ffa072259a187d0273b6f67d6b0f4d63c98ce9755eceb79496001600160801b0360405193169280610968339482610e08565b0390a3335f90815260016020526040902061084a9061083061099182546001600160801b031690565b6001016001600160801b031690565b346100ff575f3660031901126100ff576109b8611195565b4780156109ce575f80808093335af1156100ff57005b60405162461bcd60e51b81526020600482015260166024820152754e6f2062616c616e636520746f20776974686472617760501b6044820152606490fd5b346100ff575f3660031901126100ff57610a24611195565b5f80546001600160a01b0319811682556001600160a01b03167f8be0079c531659141344cd1fd0a4f28419497f9722a3daafe3b4186f6b6457e08280a3005b346100ff575f3660031901126100ff575f546040516001600160a01b039091168152602090f35b346100ff5760203660031901126100ff576001600160801b03610aab6100e9565b335f526003602052610ad660ff6102598360405f20906001600160801b03165f5260205260405f2090565b335f526002602052610b166002610b018360405f20906001600160801b03165f5260205260405f2090565b5f8155610b1060018201611136565b01611136565b335f908152600360205260409020610b3d90610b33908390610757565b805460ff19169055565b16337fca66f629f97651b3c31cab2527f9a13b61916855462767f6fd31b204bfda9d645f80a3005b346100ff5760203660031901126100ff57610b7e610342565b610b86611195565b6001600160a01b03168015610bd7575f80546001600160a01b03198116831782556001600160a01b0316907f8be0079c531659141344cd1fd0a4f28419497f9722a3daafe3b4186f6b6457e09080a3005b631e4fbdf760e01b5f525f60045260245ffd5b346100ff5760203660031901126100ff576001600160a01b03610c0b610342565b165f52600160205260206001600160801b0360405f205416604051908152f35b15610c3257565b60405162461bcd60e51b8152602060048201526013602482015272139bdd1948191bd95cc81b9bdd08195e1a5cdd606a1b6044820152606490fd5b15610c7457565b60405162461bcd60e51b815260206004820152601060248201526f139bdd19481a5cc8185c98da1a5d995960821b6044820152606490fd5b90600182811c92168015610cda575b6020831014610cc657565b634e487b7160e01b5f52602260045260245ffd5b91607f1691610cbb565b818110610cef575050565b5f8155600101610ce4565b9190601f8111610d0957505050565b61017d925f5260205f20906020601f840160051c83019310610d33575b601f0160051c0190610ce4565b9091508190610d26565b91909182516001600160401b03811161014857610d6481610d5e8454610cac565b84610cfa565b6020601f8211600114610da3578190610d949394955f92610d98575b50508160011b915f199060031b1c19161790565b9055565b015190505f80610d80565b601f19821690610db6845f5260205f2090565b915f5b818110610df057509583600195969710610dd8575b505050811b019055565b01515f1960f88460031b161c191690555f8080610dce565b9192602060018192868b015181550194019201610db9565b9060206104669281815201906103d3565b9060405191825f825492610e2c84610cac565b8084529360018116908115610e955750600114610e51575b5061017d9250038361014d565b90505f9291925260205f20905f915b818310610e7957505090602061017d928201015f610e44565b6020919350806001915483858901015201910190918492610e60565b90506020925061017d94915060ff191682840152151560051b8201015f610e44565b90604051610ec48161012d565b809260ff81546001600160801b03811684526001600160401b038160801c16602085015260c01c169060028210156103bf576002610f1b916080936040860152610f1060018201610e19565b606086015201610e19565b910152565b9060028110156103bf57815460ff60c01b191660c09190911b60ff60c01b16179055565b15610f4b57565b60405162461bcd60e51b8152602060048201526016602482015275082e4e4c2f2e640d8cadccee8d040dad2e6dac2e8c6d60531b6044820152606490fd5b906001600160801b03809116911601906001600160801b038211610fa957565b634e487b7160e01b5f52601160045260245ffd5b8051821015610fd15760209160051b010190565b634e487b7160e01b5f52603260045260245ffd5b815181546fffffffffffffffffffffffffffffffff19166001600160801b0391909116178155906020810151825467ffffffffffffffff60801b191660809190911b67ffffffffffffffff60801b16178255604081015160028110156103bf5761104f9083610f20565b6001820160608201518051906001600160401b0382116101485761107d826110778554610cac565b85610cfa565b602090601f83116001146110c257926110b68360809461017d9897946002975f92610d985750508160011b915f199060031b1c19161790565b90555b01519101610d3d565b90601f198316916110d6855f5260205f2090565b925f5b81811061111e57509361017d979693600296936001938360809810611106575b505050811b0190556110b9565b01515f1960f88460031b161c191690555f80806110f9565b929360206001819287860151815501950193016110d9565b6111408154610cac565b908161114a575050565b81601f5f931160011461115b575055565b8183526020832061117791601f0160051c810190600101610ce4565b808252602082209081548360011b9084198560031b1c191617905555565b5f546001600160a01b031633036111a857565b63118cdaa760e01b5f523360045260245ffdfea264697066735822122060cda4dc79ef2aab789abd57f0b7f5e2c3d3d069a0cada5fea7590f9becd447764736f6c634300081e0033a26469706673582212200146e92ff8a9e5ffdcf1a1ac8c0ec12e204e015640d65662bd05a32896aa4eb364736f6c634300081e0033",
    "sourcePath": "/Users/quantnd/Library/CloudStorage/OneDrive-GOLDENFINANCIALINNOVATION(GFI)/GFI-Bot/Solidity_learning/src/NotesFactory.sol",
    "compiler": {
        "name": "solc",
        "version": "0.8.30+commit.73712a01"
    },
    "functionHashes": {
        "createNoteContract()": "c479351a",
        "deployedNotes(uint256)": "28de5491",
        "getDeployedNotes()": "95562567"
    },
    "gasEstimates": {
        "creation": {
            "codeDepositCost": "1091600",
            "executionCost": "1142",
            "totalCost": "1092742"
        },
        "external": {
            "createNoteContract()": "infinite",
            "deployedNotes(uint256)": "6625",
            "getDeployedNotes()": "infinite"
        }
    }
}